:020000040800F2
:1000000000500020B5410008B7380008BD3800088E
:10001000C3380008C9380008CF38000800000000C5
:10002000000000000000000000000000D5380008BB
:10003000E138000800000000ED380008F938000839
:10004000FD410008FD410008FD410008FD41000898
:10005000FD410008FD410008FD410008FD41000888
:10006000FD410008FD410008FD410008FD41000878
:10007000FD410008FD410008FD410008FD41000868
:10008000FD410008FD410008FD410008FD41000858
:10009000FD410008FD410008FD410008FD41000848
:1000A000FD410008FD410008FD410008FD41000838
:1000B000FD4100080539000819390008FD41000814
:1000C000FD410008FD410008FD410008FD41000818
:1000D000FD410008FD41000831390008FD410008DC
:1000E000FD410008FD410008FD410008000000003E
:1000F0000000000000000000000000000000000000
:0C01000000000000000000005FF808F1A3
:1001100010B5054C237833B9044B13B10448AFF341
:1001200000800123237010BD40010020000000006A
:10013000009A000808B5034B1BB103490348AFF30D
:10014000008008BD0000000044010020009A000863
:1001500081F0004102E000BF83F0004330B54FEA78
:1001600041044FEA430594EA050F08BF90EA020FE5
:100170001FBF54EA000C55EA020C7FEA645C7FEA78
:10018000655C00F0E2804FEA5454D4EB5555B8BF9B
:100190006D420CDD2C4480EA020281EA030382EA0C
:1001A000000083EA010180EA020281EA0303362D9E
:1001B00088BF30BD11F0004F4FEA01314FF4801C71
:1001C0004CEA113102D0404261EB410113F0004F83
:1001D0004FEA03334CEA133302D0524263EB43033A
:1001E00094EA050F00F0A780A4F10104D5F1200ED8
:1001F0000DDB02FA0EFC22FA05F2801841F1000133
:1002000003FA0EF2801843FA05F359410EE0A5F106
:1002100020050EF1200E012A03FA0EFC28BF4CF037
:10022000020C43FA05F3C01851EBE37101F00045ED
:1002300007D54FF0000EDCF1000C7EEB00006EEBFA
:100240000101B1F5801F1BD3B1F5001F0CD3490884
:100250005FEA30004FEA3C0C04F101044FEA4452DB
:1002600012F5800F80F09A80BCF1004F08BF5FEA62
:10027000500C50F1000041EB045141EA050130BD42
:100280005FEA4C0C404141EB0101013C28BFB1F554
:10029000801FE9D291F0000F04BF01460020B1FA9F
:1002A00081F308BF2033A3F10B03B3F120020CDA72
:1002B0000C3208DD02F1140CC2F10C0201FA0CF050
:1002C00021FA02F10CE002F11402D8BFC2F1200CB5
:1002D00001FA02F120FA0CFCDCBF41EA0C0190406B
:1002E000E41AA2BF01EB0451294330BD6FEA0404B4
:1002F0001F3C1CDA0C340EDC04F11404C4F120029F
:1003000020FA04F001FA02F340EA030021FA04F3B0
:1003100045EA030130BDC4F10C04C4F1200220FA07
:1003200002F001FA04F340EA0300294630BD21FA45
:1003300004F0294630BD94F0000F83F4801306BF0B
:1003400081F480110134013D4EE77FEA645C18BFFF
:100350007FEA655C29D094EA050F08BF90EA020F96
:1003600005D054EA000C04BF1946104630BD91EA8E
:10037000030F1EBF0021002030BD5FEA545C05D191
:100380004000494128BF41F0004130BD14F58004D0
:100390003CBF01F5801130BD01F0004545F0FE4144
:1003A00041F470014FF0000030BD7FEA645C1ABF79
:1003B000194610467FEA655C1CBF0B46024650EAB0
:1003C000013406BF52EA033591EA030F41F40021DC
:1003D00030BD00BF90F0000F04BF0021704730B562
:1003E0004FF4806404F132044FF000054FF0000137
:1003F00050E700BF90F0000F04BF0021704730B5F8
:100400004FF4806404F1320410F0004548BF4042CC
:100410004FF000013EE700BF42004FEAE2014FEA21
:1004200031014FEA02701FBF12F07F4393F07F4FFC
:1004300081F06051704732F07F4208BF704793F0FF
:100440007F4F04BF41F40021704730B54FF4607412
:1004500001F0004521F000411CE700BF50EA010215
:1004600008BF704730B54FF000050AE050EA0102BE
:1004700008BF704730B511F0004502D5404261EB2E
:1004800041014FF4806404F132045FEA915C3FF46F
:10049000D8AE4FF003025FEADC0C18BF03325FEA0C
:1004A000DC0C18BF033202EBDC02C2F1200300FABD
:1004B00003FC20FA02F001FA03FE40EA0E0021FAE2
:1004C00002F11444BDE600BF70B54FF0FF0C4CF4D0
:1004D000E06C1CEA11541DBF1CEA135594EA0C0F82
:1004E00095EA0C0F00F0DEF82C4481EA030621EABD
:1004F0004C5123EA4C5350EA013518BF52EA0335F8
:1005000041F4801143F4801338D0A0FB02CE4FF0A9
:100510000005E1FB02E506F00042E0FB03E54FF0D9
:100520000006E1FB03569CF0000F18BF4EF0010ED1
:10053000A4F1FF04B6F5007F64F5407404D25FEACD
:100540004E0E6D4146EB060642EAC62141EA555180
:100550004FEAC52040EA5E504FEACE2EB4F1FD0CC2
:1005600088BFBCF5E06F1ED8BEF1004F08BF5FEA40
:10057000500E50F1000041EB045170BD06F00046F2
:1005800046EA010140EA020081EA0301B4EB5C049F
:10059000C2BFD4EB0C0541EA045170BD41F4801197
:1005A0004FF0000E013C00F3AB8014F1360FDEBFBC
:1005B000002001F0004170BDC4F10004203C35DA98
:1005C0000C341BDC04F11404C4F1200500FA05F31B
:1005D00020FA04F001FA05F240EA020001F00042BC
:1005E00021F0004110EBD37021FA04F642EB060132
:1005F0005EEA430E08BF20EAD37070BDC4F10C045C
:10060000C4F1200500FA04F320FA05F001FA04F21F
:1006100040EA020001F0004110EBD37041F100010B
:100620005EEA430E08BF20EAD37070BDC4F1200516
:1006300000FA05F24EEA020E20FA04F301FA05F27E
:1006400043EA020321FA04F001F0004121FA04F226
:1006500020EA020000EBD3705EEA430E08BF20EAF6
:10066000D37070BD94F0000F0FD101F00046400030
:1006700041EB010111F4801F08BF013CF7D041EAB2
:10068000060195F0000F18BF704703F000465200B6
:1006900043EB030313F4801F08BF013DF7D043EA87
:1006A0000603704794EA0C0F0CEA135518BF95EA3D
:1006B0000C0F0CD050EA410618BF52EA4306D1D1C4
:1006C00081EA030101F000414FF0000070BD50EAE3
:1006D000410606BF1046194652EA430619D094EA6D
:1006E0000C0F02D150EA013613D195EA0C0F05D157
:1006F00052EA03361CBF104619460AD181EA0301AB
:1007000001F0004141F0FE4141F470014FF0000062
:1007100070BD41F0FE4141F4780170BD70B54FF0FD
:10072000FF0C4CF4E06C1CEA11541DBF1CEA13557D
:1007300094EA0C0F95EA0C0F00F0A7F8A4EB05045F
:1007400081EA030E52EA03354FEA013100F0888056
:100750004FEA03334FF0805545EA131343EA12631F
:100760004FEA022245EA111545EA10654FEA0026D4
:100770000EF000419D4208BF964244F1FD0404F58D
:10078000407402D25B084FEA3202B61A65EB0305E9
:100790005B084FEA32024FF480104FF4002CB6EBA6
:1007A000020E75EB030E22BFB61A754640EA0C0026
:1007B0005B084FEA3202B6EB020E75EB030E22BF66
:1007C000B61A754640EA5C005B084FEA3202B6EBA7
:1007D000020E75EB030E22BFB61A754640EA9C0066
:1007E0005B084FEA3202B6EB020E75EB030E22BF36
:1007F000B61A754640EADC0055EA060E18D04FEAF4
:10080000051545EA16754FEA06164FEAC30343EA93
:1008100052734FEAC2025FEA1C1CC0D111F4801F60
:100820000BD141EA00014FF000004FF0004CB6E759
:1008300011F4801F04BF01430020B4F1FD0C88BFF8
:10084000BCF5E06F3FF6AFAEB5EB030C04BFB6EB03
:10085000020C5FEA500C50F1000041EB045170BDF6
:100860000EF0004E4EEA113114EB5C04C2BFD4EB23
:100870000C0541EA045170BD41F480114FF0000EA7
:10088000013C90E645EA060E8DE60CEA135594EA23
:100890000C0F08BF95EA0C0F3FF43BAF94EA0C0F26
:1008A0000AD150EA01347FF434AF95EA0C0F7FF49B
:1008B00025AF104619462CE795EA0C0F06D152EAEF
:1008C00003353FF4FDAE1046194622E750EA4106D3
:1008D00018BF52EA43067FF4C5AE50EA41047FF4E4
:1008E0000DAF52EA43057FF4EBAE12E74FEA410247
:1008F00012F5001215D211D56FF47873B3EB625272
:1009000012D94FEAC12343F0004343EA505311F098
:10091000004F23FA02F018BF404270474FF000002A
:10092000704750EA013005D111F0004008BF6FF068
:10093000004070474FF00000704700BF4A0011D2DE
:1009400012F5001211D20DD56FF47873B3EB625229
:100950000ED44FEAC12343F0004343EA505323FA35
:1009600002F070474FF00000704750EA013002D1AA
:100970004FF0FF3070474FF00000704780F00040AC
:1009800002E000BF81F0004142001FBF5FEA410367
:1009900092EA030F7FEA226C7FEA236C6AD04FEA67
:1009A0001262D2EB1363C1BFD218414048404140AC
:1009B000B8BF5B42192B88BF704710F0004F40F45E
:1009C000000020F07F4018BF404211F0004F41F47A
:1009D000000121F07F4118BF494292EA030F3FD046
:1009E000A2F1010241FA03FC10EB0C00C3F1200359
:1009F00001FA03F100F0004302D5494260EB4000E8
:100A0000B0F5000F13D3B0F1807F06D340084FEA52
:100A1000310102F10102FE2A51D2B1F1004F40EB47
:100A2000C25008BF20F0010040EA030070474900AF
:100A300040EB0000013A28BFB0F5000FEDD2B0FA4C
:100A400080FCACF1080CB2EB0C0200FA0CF0AABF6F
:100A500000EBC25052421843BCBFD040184370470D
:100A600092F0000F81F4000106BF80F40000013213
:100A7000013BB5E74FEA41037FEA226C18BF7FEAEA
:100A8000236C21D092EA030F04D092F0000F08BF2C
:100A90000846704790EA010F1CBF0020704712F013
:100AA0007F4F04D1400028BF40F00040704712F152
:100AB00000723CBF00F50000704700F0004343F0B7
:100AC000FE4040F4000070477FEA226216BF0846ED
:100AD0007FEA23630146420206BF5FEA412390EAB0
:100AE000010F40F4800070474FF0000304E000BFA6
:100AF00010F0004348BF40425FEA000C08BF704757
:100B000043F0964301464FF000001CE050EA01021A
:100B100008BF70474FF000030AE000BF50EA01022F
:100B200008BF704711F0004302D5404261EB41011C
:100B30005FEA010C02BF84460146002043F0B64341
:100B400008BFA3F18053A3F50003BCFA8CF2083A66
:100B5000A3EBC25310DB01FA02FC634400FA02FC6F
:100B6000C2F12002BCF1004F20FA02F243EB020076
:100B700008BF20F00100704702F1200201FA02FCD8
:100B8000C2F1200250EA4C0021FA02F243EB0200CB
:100B900008BF20EADC7070474FF0FF0C1CEAD0520F
:100BA0001EBF1CEAD15392EA0C0F93EA0C0F6FD0D0
:100BB0001A4480EA010C400218BF5FEA41211ED0AE
:100BC0004FF0006343EA501043EA5111A0FB01319A
:100BD0000CF00040B1F5000F3EBF490041EAD3716F
:100BE0005B0040EA010062F17F02FD2A1DD8B3F1EB
:100BF000004F40EBC25008BF20F00100704790F05A
:100C0000000F0CF0004C08BF49024CEA502040EAAB
:100C100051207F3AC2BFD2F1FF0340EAC250704771
:100C200040F400004FF00003013A5DDC12F1190FAF
:100C3000DCBF00F000407047C2F10002410021FA21
:100C400002F1C2F1200200FA02FC5FEA310040F139
:100C5000000053EA4C0308BF20EADC70704792F0B2
:100C6000000F00F0004C02BF400010F4000F013AEA
:100C7000F9D040EA0C0093F0000F01F0004C02BFE5
:100C8000490011F4000F013BF9D041EA0C018FE754
:100C90000CEAD15392EA0C0F18BF93EA0C0F0AD05A
:100CA00030F0004C18BF31F0004CD8D180EA010080
:100CB00000F00040704790F0000F17BF90F0004F19
:100CC000084691F0000F91F0004F14D092EA0C0FFB
:100CD00001D142020FD193EA0C0F03D14B0218BF8E
:100CE000084608D180EA010000F0004040F0FE40D4
:100CF00040F40000704740F0FE4040F44000704770
:100D00004FF0FF0C1CEAD0521EBF1CEAD15392EAEE
:100D10000C0F93EA0C0F69D0A2EB030280EA010CDE
:100D200049024FEA402037D04FF0805343EA111177
:100D300043EA10130CF000408B4238BF5B0042F1D5
:100D40007D024FF4000C8B4224BF5B1A40EA0C007A
:100D5000B3EB510F24BFA3EB510340EA5C00B3EBAC
:100D6000910F24BFA3EB910340EA9C00B3EBD10F9A
:100D700024BFA3EBD10340EADC001B0118BF5FEAEC
:100D80001C1CE0D1FD2A3FF650AF8B4240EBC25015
:100D900008BF20F0010070470CF0004C4CEA5020D6
:100DA0007F32C2BFD2F1FF0340EAC250704740F425
:100DB00000004FF00003013A37E792F0000F00F017
:100DC000004C02BF400010F4000F013AF9D040EA95
:100DD0000C0093F0000F01F0004C02BF490011F429
:100DE000000F013BF9D041EA0C0195E70CEAD15321
:100DF00092EA0C0F08D142027FF47DAF93EA0C0F08
:100E00007FF470AF084676E793EA0C0F04D14B02EB
:100E10003FF44CAF08466EE730F0004C18BF31F09D
:100E2000004CCAD130F000427FF45CAF31F0004397
:100E30007FF43CAF5FE700BF4FEA4002B2F1FE4FE4
:100E40000FD34FF09E03B3EB12620DD94FEA00238C
:100E500043F0004310F0004F23FA02F018BF404265
:100E600070474FF00000704712F1610F01D142024C
:100E700005D110F0004008BF6FF0004070474FF000
:100E80000000704742000ED2B2F1FE4F0BD34FF07C
:100E90009E03B3EB126209D44FEA002343F00043F0
:100EA00023FA02F070474FF00000704712F1610F13
:100EB00001D1420202D14FF0FF3070474FF00000E5
:100EC000704700BF7BB972B90029BEBF00204FF048
:100ED000004106E008BF00281CBF6FF000414FF042
:100EE000FF3000F0A9B9ADF1080C6DE904CE00297E
:100EF00009DB002B1ADB00F035F8DDF804E0DDE952
:100F0000022304B07047404261EB4101002B1BDB20
:100F100000F028F8DDF804E0DDE9022304B04042E7
:100F200061EB4101524263EB43037047524263EB72
:100F3000430300F017F8DDF804E0DDE9022304B014
:100F4000404261EB41017047524263EB430300F0C2
:100F500009F8DDF804E0DDE9022304B0524263EB56
:100F6000430370472DE9F047089E0D460446884626
:100F7000002B4DD18A42944668D9B2FA82F252B11E
:100F800001FA02F3C2F1200120FA01F10CFA02FC8D
:100F900041EA030894404FEA1C41B8FBF1F71FFAFD
:100FA0008CFE01FB178807FB0EF0230C43EA084375
:100FB00098420AD91CEB030307F1FF3580F01E812C
:100FC000984240F21B81023F63441B1AB3FBF1F0CD
:100FD00001FB103300FB0EFEA4B244EA0344A64515
:100FE0000AD91CEB040400F1FF3380F00981A64507
:100FF00040F20681644402380021A4EB0E0440EA6A
:1010000007401EB10023D440C6E90043BDE8F08785
:101010008B4208D9002E00F0EE800021C6E90005C1
:101020000846BDE8F087B3FA83F100294AD1AB4204
:1010300002D3824200F2FC80841A65EB0303012094
:101040009846002EE2D0C6E90048DFE702B9FFDE8D
:10105000B2FA82F2002A40F09180A1EB0C0001214B
:101060004FEA1C471FFA8CFEB0FBF7F307FB130097
:10107000250C45EA00450EFB03F0A84208D91CEBFD
:10108000050503F1FF3802D2A84200F2CE804346A4
:101090002D1AB5FBF7F007FB10550EFB00FEA4B2AE
:1010A00044EA0544A64508D91CEB040400F1FF35C9
:1010B00002D2A64500F2B6802846A4EB0E0440EA10
:1010C00003409EE7C1F120078B4022FA07FC4CEA5F
:1010D000030C25FA07FA4FEA1C49BAFBF9F820FA83
:1010E00007F309FB18AA8D401FFA8CFE1D4300FA76
:1010F00001F308FB0EF02C0C44EA0A44A04202FA69
:1011000001F20BD91CEB040408F1FF3A80F088804F
:10111000A04240F28580A8F102086444241AB4FB7E
:10112000F9F009FB104400FB0EFEADB245EA0444A1
:10113000A64508D91CEB040400F1FF356CD2A64586
:101140006AD90238644440EA0840A0FB0295A4EB47
:101150000E04AC42C846AE4656D353D0002E69D0DA
:10116000B3EB080264EB0E0422FA01F304FA07F76A
:101170001F43CC40C6E90074002147E70CFA02FC8B
:10118000C2F1200125FA01F34FEA1C4720FA01F1D0
:1011900095400D43B3FBF7F107FB11331FFA8CFEAB
:1011A000280C40EA034001FB0EF3834204FA02F4E8
:1011B00008D91CEB000001F1FF382FD283422DD952
:1011C00002396044C01AB0FBF7F307FB1300ADB25D
:1011D00045EA004503FB0EF0A84208D91CEB0505C3
:1011E00003F1FF3816D2A84214D9023B6544281AED
:1011F00043EA014138E73146304607E72F46E4E647
:101200001846F9E64B45A9D2B9EB020865EB0C0E7E
:101210000138A3E74346EAE7284694E74146D1E789
:10122000D0467BE76444023847E7023B65442FE73A
:10123000084606E73146E9E6704700BF80B582B050
:1012400000AF03460A46FB711346BB71BA79FB79BE
:101250001946EC2001F0B4FA00BF0837BD4680BD46
:1012600080B584B000AF0346FB71FB791946EC20D2
:1012700001F050FB0346FB73FB7B18461037BD465D
:1012800080BD80B582B000AF03463960FB71FB7949
:101290003A681946EC2001F06DFB00BF0837BD46E7
:1012A00080BD80B582B000AF03463960FB71FB7929
:1012B0003A681946EC2001F05DFB00BF0837BD46D7
:1012C00080BD80B582B000AF03463960FB71FB7909
:1012D0003A681946EC2001F077FB3B681B681B0C51
:1012E000DAB23B681B6803F47F431A433B681B6810
:1012F0001B0403F47F03134323F07F423B681A600F
:1013000000BF0837BD4680BD80B582B000AFF32076
:10131000FFF7A6FF034603F00903FB71FB791846AC
:101320000837BD4680BD000080B500AF5949882010
:10133000FFF7A7FF574B1B881A465749574807F036
:10134000B9FC564802F000FE55498A20FFF7A9FF74
:10135000504BB3F902301A465249504807F0AAFCE4
:101360004E4802F0F1FD50498C20FFF79AFF494B9F
:10137000B3F904301A464D49484807F09BFC4748EA
:1013800002F0E2FD4A498E20FFF77BFF414BDB88EC
:101390001A464849414807F08DFC404802F0D4FD08
:1013A00045499020FFF77DFF3A4BB3F908301A46C4
:1013B00042493A4807F07EFC384802F0C5FD4049F2
:1013C0009220FFF76EFF334BB3F90A301A463D49BE
:1013D000324807F06FFC314802F0B6FD3A499420DC
:1013E000FFF75FFF2B4BB3F90C301A4637492B48F8
:1013F00007F060FC294802F0A7FD35499620FFF769
:1014000050FF244BB3F90E301A463249234807F0F7
:1014100051FC224802F098FD2F499820FFF741FF28
:101420001C4BB3F910301A462C491C4807F042FCFB
:101430001A4802F089FD2A499A20FFF732FF154B1E
:10144000B3F912301A462749144807F033FC134801
:1014500002F07AFD24499C20FFF723FF0D4BB3F9DE
:1014600014301A4621490D4807F024FC0B4802F0BD
:101470006BFD1F499E20FFF714FF064BB3F9163092
:101480001A461C49054807F015FC044802F05CFDAB
:1014900000BF80BD5C010020189A0008D002002027
:1014A0005E010020289A000860010020389A000898
:1014B00062010020489A000864010020589A000840
:1014C00066010020689A000868010020789A0008E8
:1014D0006A010020889A00086C010020989A000890
:1014E0006E010020A89A000870010020B89A000838
:1014F00072010020C89A000880B584B000AF03468E
:10150000FB71F520FFF7ACFE034603F01F03FB73EE
:1015100097F9073023F01F035AB297F90F3013439E
:101520005BB2FB73FB7B1946F520FFF787FE00BF1C
:101530001037BD4680BD80B584B000AF0346FB7157
:10154000F520FFF78DFE034623F01C03FB7397F98C
:10155000073003F01C035AB297F90F3013435BB204
:10156000FB73FB7B1946F520FFF768FE00BF1037C1
:10157000BD4680BD80B584B000AF0346FB71F4204A
:10158000FFF76EFE034603F01F03FB7397F9073066
:1015900023F01F035AB297F90F3013435BB2FB736A
:1015A000FB7B1946F420FFF749FE00BF1037BD460C
:1015B00080BD80B584B000AF0346FB71F420FFF717
:1015C0004FFE034623F01C03FB7397F9073003F02B
:1015D0001C035AB297F90F3013435BB2FB73FB7BCA
:1015E0001946F420FFF72AFE00BF1037BD4680BD24
:1015F00080B584B000AF0346FB71F420FFF730FEE6
:10160000034623F00303FB7397F9073003F003034A
:101610005AB297F90F3013435BB2FB73FB7B194649
:10162000F420FFF70BFE00BF1037BD4680BD000061
:1016300080B584B000AF4FF00003FB603B46194615
:10164000FA20FFF73EFE3B681B093B603B68DB0866
:101650001C4A128852009B1A1A4AB2F9022002FB55
:1016600003F3DB0ABB603B681B09164A12889B1A0E
:101670003A68120913490988521A02FB03F31B0B3B
:10168000322202FB03F39B0B7B60BA687B68134436
:101690000D4A13600C4B1A6813469B0013448033A9
:1016A0001B121846FFF724FA0346FB600749F86847
:1016B000FFF726FB0346FB60FB6818461037BD4664
:1016C00080BD00BF5C010020740100200000C84202
:1016D0002DE9B04FCCB000AF4FF00003C7F82C316C
:1016E000FFF7A6FF07F584731946F720FFF7E9FD1A
:1016F000D7F808311B09C7F80831AC4B1B68DA175B
:1017000098469146B8F5FA33BB6449F1FF33FB6460
:10171000D7E91223C7E94823D7F82421D7F8203185
:1017200003FB02F1D7F82421D7F8203102FB03F3A1
:10173000CA18D7F82031A3FB034553191D469C4B0B
:10174000B3F910301BB2DA17C7F8C030C7F8C4209D
:10175000D7E93001034603FB05F20B4604FB03F314
:1017600013440246A4FB02AB5B449B46C7E946AB6D
:10177000C7E946AB8E4BB3F90E301BB2DA17C7F888
:10178000B830C7F8BC20D7F82031D7E92E452A4613
:1017900002FB03F2D7F82431214601FB03F31A447C
:1017A000D7F820312146A3FB0131C7F80411C7F84F
:1017B0000031D7F80431D318C7F804314FF00000D6
:1017C0004FF00001D7E940452B465904224641EA33
:1017D000D23123465804D7E9462314183C644B41C0
:1017E0007B64D7E91034C7E94634714BB3F90C3048
:1017F0001BB2DA17C7F8B030C7F8B4204FF00000BA
:101800004FF00001D7F8B030D9000020D7E94623C7
:101810001418BC634B41FB63D7E90E34C7E9463467
:10182000D7F82421D7F8203103FB02F1D7F824217F
:10183000D7F8203102FB03F3CA18D7F82031A3FBF5
:101840000331C7F8FC10C7F8F830D7F8FC30D318CC
:10185000C7F8FC30564BB3F90A301BB2DA17C7F899
:10186000A830C7F8AC20D7E93E342246D7E92A8908
:10187000414601FB02F24D4618462146034603FB52
:1018800005F3134402464146A2FB0121C7F8F410B8
:10189000C7F8F020D7F8F4201344C7F8F4304FF01D
:1018A00000004FF00001D7E93C452346180A2A46BC
:1018B00040EA02602B4619123D4BB3F908301BB2C7
:1018C000DA17C7F8A030C7F8A420D7F82031D7E935
:1018D00028894A4602FB03F2D7F82431444604FB28
:1018E00003F31A44D7F820314446A3FB0434C7F865
:1018F000EC40C7F8E830D7F8EC30D318C7F8EC3034
:101900004FF000024FF00003D7E93A894C46230319
:10191000C44643EA1C534446220384183C6341EB0B
:1019200003037B63D7E90C34C7E94834D7E948237C
:1019300003F50041C7F89C10C7F898201C4BDB88C2
:101940009BB20022C7F89030C7F89420D7E926341C
:101950002246D7E92489414601FB02F24D4618464A
:101960002146034603FB05F3134402464146A2FB0E
:101970000121C7F8E410C7F8E020D7F8E4201344A9
:10198000C7F8E4304FF000024FF00003D7E93845C4
:1019900029464A102946CB17C7E94823D7E94823E7
:1019A000134307D14FF0000363E100BF740100202F
:1019B0005C010020D7F80831C3F580130022BB6218
:1019C000FA62D7E90A34C7E94434D7F810315B0822
:1019D000C7F88C30D7F81031DB07C7F88830D7E963
:1019E0004623D7E922010446A41AC7F8804061EBD8
:1019F0000303C7F88430D7E9204522462B469118C7
:101A000039625B417B62D7E9082321465118B961ED
:101A100029464B41FB614FF000024FF00003D7E92C
:101A2000068949468B01414643EA916341468A0152
:101A3000414689183961494643EB010179614FF00C
:101A400000024FF00003D7E9048949468B00C446E1
:101A500043EA9C7341468A001046194603462246D3
:101A60009B18BB600B462A4642EB0303FB604FF01A
:101A700000024FF00003D7E9028949468B00C446B3
:101A800043EA9C7341468A001046194603462246A3
:101A90009B18BB672B460A4642EB0303FB67D7E95B
:101AA0004823D7E91E01FFF70DFA02460B46C7E9A6
:101AB0004423734BB3F916301BB2DA173B677A67CE
:101AC000D7E944234FF000004FF00001500B40EAEB
:101AD000C3405913D7E91C452B4600FB03F22346AC
:101AE00003FB01F313442246A2FB0021C7F8DC10DC
:101AF000C7F8D820D7F8DC201344C7F8DC30D7E982
:101B000044234FF000004FF00001500B40EAC34067
:101B10005913D7E936452B4600FB03F2234603FB56
:101B200001F313442246A2FB0021C7F8D410C7F8E2
:101B3000D020D7F8D4201344C7F8D4304FF0000297
:101B40004FF00003D7E9344521464A0E2046294686
:101B50000C4642EAC4124B16C7E94823484BB3F976
:101B600014301BB2DA17BB66FA66D7F81031D7E922
:101B70001A452A4602FB03F2D7F81431214601FB2D
:101B800003F31344D7F810212146A2FB0121C7F823
:101B9000CC10C7F8C820D7F8CC201344C7F8CC30F5
:101BA0004FF000024FF00003D7E932452146CA0C3E
:101BB000204629460C4642EA4432CB14C7E9462364
:101BC000D7E94401D7E9482384183C6641EB030375
:101BD0007B66D7E94623D7E9184521468918B965B8
:101BE000294643EB0101F9654FF000004FF0000179
:101BF000D7E916452346180A2A4640EA02602B46D2
:101C000019121F4BB3F912301BB2DA173B657A6514
:101C10004FF000024FF00003D7E914894C4623012E
:101C2000C44643EA1C734446220184183C6041EBDD
:101C300003037B60D7E90034C7E94434D7E94401A2
:101C40004FF000024FF00003020A42EA01620B1259
:101C50001346C7F80C31D7F80C01FEF745FF0346D1
:101C600008491846FFF74CF80346C7F82C31D7F857
:101C70002C31184607F59877BD46BDE8B08F00BFF8
:101C80005C0100200000C84280B582B000AF002394
:101C9000FB710023BB80D020FFF7E2FA0346FB7103
:101CA000FB791A462649274807F004F8254802F030
:101CB0004BF9B621E020FFF7C1FA00BFFFF724FB84
:101CC000034603F00103002BF8D1FFF72DFBA02002
:101CD000FFF712FC0820FFF72EFC6020FFF74AFCFC
:101CE0000820FFF766FCF420FFF7BAFA0346BB8032
:101CF000BB881A461449134806F0DCFF114802F06D
:101D000023F9BB8803F0E003002B01D00F4A00E069
:101D10000F4ABB8803F01C03002B01D00B4B00E0E3
:101D20000B4B0C49074806F0C5FF064802F00CF9BA
:101D30000320FFF75DFC00BF0837BD4680BD00BF34
:101D4000D89A0008D0020020F09A00080C9B0008E6
:101D5000109B0008149B000880B584B000AF0023DE
:101D6000FB73284B7B600423BB60B42398B2BB6831
:101D7000DBB23A1DFF2100F06BFD4FF4FA7005F065
:101D8000C7FAB4239BB22021184600F0C3FD0346D6
:101D9000FB73FB7B1A461C491C4806F08BFF1B4853
:101DA00002F0D2F8B4239BB2F421184600F076FD7D
:101DB0004FF4967005F0ACFAB4239BB220220121B7
:101DC000184600F0FDFC642005F0A2FAB4239BB293
:101DD0000121184600F09EFD0346FB73FB7B1A466B
:101DE0000B490A4806F066FF084802F0ADF800F01B
:101DF0006DF803461A46074B1A8000BF1037BD46E0
:101E000080BD00BF11E5728A349B00087801002074
:101E10005C9B0008AA01002080B58AB000AFF86082
:101E2000B96011461A460B46FB711346BB80264B20
:101E30001B88184600F063F8BB885B02FB8497F9A7
:101E4000073019339BB25B02BB84FB8C1B0A9BB22D
:101E5000DBB23B76FB8CDBB27B76BB8C1B0A9BB286
:101E6000DBB2BB76BB8CDBB2FB7604233B62B423D4
:101E700098B23B6ADBB207F11802FF2100F0E8FCE0
:101E80000823FB61B42398B2FB69DBB207F11002AF
:101E9000022100F0DFFD3B7C1B021AB27B7C1BB2EF
:101EA00013431BB29AB2FB681A80BB7C1B021AB2A6
:101EB000FB7C1BB213431BB29AB2BB681A8000BFF3
:101EC0002837BD4680BD00BFAA01002080B582B082
:101ED00000AF02237B60B42398B27B68DBB23A4642
:101EE000112100F0B7FD3B781B021AB27B781BB2C0
:101EF00013431BB29BB218460837BD4680BD80B560
:101F000084B000AF0346FB80FB881B0A9BB2DBB2A8
:101F10003B72FB88DBB27B720223FB60B42398B276
:101F2000FB68DBB207F10802FF2100F091FC00BF63
:101F30001037BD4680BD80B487B000AF034639601E
:101F4000FB800523FB750FE0FB7D03F10043013BA4
:101F50005B003A681A44FB7D5B0039680B441288C9
:101F60001A80FB7D013BFB75FB7D002BECD13B68B0
:101F7000FA881A800023BB750DE0BB7D5B003A68D0
:101F80001A44BB7D12885B0018333B4423F8102CA5
:101F9000BB7D0133BB75BB7D052BEED900237B7563
:101FA00035E07B7D01333B752BE07B7D5B00183397
:101FB0003B4433F8102C3B7D5B0018333B4433F833
:101FC000103C9A421AD97B7D5B0018333B4433F8AE
:101FD000103C7B823B7D7A7D5B0018333B4433F8B9
:101FE000101C530018333B440A4623F8102C3B7D49
:101FF0005B0018333B447A8A23F8102C3B7D013375
:102000003B753B7D042BD0D97B7D01337B757B7D7C
:10201000032BC6D9BB8918461C37BD4680BC704708
:1020200080B485B000AF03463960FB800023FB819C
:1020300007237B730FE07B7B03F10043013B5B00D5
:102040003A681A447B7B5B0039680B4412881A801B
:102050007B7B013B7B737B7B002BECD13B68FA885D
:102060001A8000233B730AE03B7B5B003A68134411
:102070001A88FB891344FB813B7B01333B733B7B19
:10208000062BF1D9FA89064BA3FB0213D21A520888
:1020900013449B089BB218461437BD4680BC70475A
:1020A0002549922480B485B000AF7860084B9A69C6
:1020B00007497B6813438B61054B9A697B68134022
:1020C000FB60FB6800BF1437BD4680BC704700BF93
:1020D0000010024080B483B000AF786039603B6884
:1020E0001B0A9AB27B685A6100BF0C37BD4680BCA0
:1020F0007047000080B586B000AF3B1D00221A601B
:102100005A609A60DA601A611020FFF7CBFF202036
:10211000FFF7C8FF0420FFF7C5FF0820FFF7C2FF45
:1021200013491448FFF7D6FF41F210011248FFF798
:10213000D1FF0F4B7B600123BB600223FB600023B8
:102140003B613B1D19460B4804F0BCFA41F21003F9
:102150007B600123BB600223FB6000233B613B1DCE
:102160001946054804F0AEFA00BF1837BD4680BDD9
:1021700020002004001001400008014080B500AF9D
:10218000802302220121184600F002F800BF80BD22
:1021900080B584B000AF0346FB710B46BB7113469C
:1021A0007B714FF48053FB81BB79012B03D1FB89F9
:1021B00043F48063FB817B79012B02D0022B05D095
:1021C00009E0FB8943F48073FB8104E0FB8943F45D
:1021D0000073FB8100BFFB891B0A9BB2DBB23B7320
:1021E000FB89DBB27B7380239BB2FA89D1B207F102
:1021F0000C02184600F00AFB00BF1037BD4680BD38
:1022000080B586B000AF786039600023FB7580230D
:102210009BB2FA7D1146184600F060FB0F2005F0D6
:1022200077F880239BB207F10C02F97D184600F085
:10223000F5FB3B7B1B021AB27B7B1BB213431BB229
:10224000BB82BB7B1B021AB2FB7B1BB213431BB2CC
:102250007B82BB8A1846FEF7CDF84FF00002224B76
:10226000FEF75CFA02460B46104619461CA3D3E95A
:102270000023FEF729F902460B46104619464FF097
:1022800000021A4BFDF768FF02460B46104619463E
:10229000FEF72CFB03465AB27B681A707B8A1846FD
:1022A000FEF7A8F84FF000020F4BFEF737FA024690
:1022B0000B46104619464FF000020D4BFEF704F98D
:1022C00002460B4610461946FEF738FB0346DAB2C3
:1022D0003B681A7000BF1837BD4680BDAFF3008061
:1022E0000000000000A064400000F04000004440F6
:1022F0000000594080B483B000AF78607B681B68F1
:1023000023F080027B681A6000BF0C37BD4680BC9A
:10231000704780B483B000AF78607B681B6823F09F
:1023200040027B681A6000BF0C37BD4680BC704716
:1023300080B483B000AF786039607B68DB6823F0DD
:10234000FE023B681A437B68DA6000BF0C37BD466B
:1023500080BC704780B483B000AF78607B68DB6876
:1023600023F001027B68DA6000BF0C37BD4680BCF9
:102370007047000080B485B000AF7860084BDA6920
:1023800007497B681343CB61054BDA697B681340CF
:10239000FB60FB6800BF1437BD4680BC704700BFC0
:1023A0000010024080B485B000AF7860084B9A6995
:1023B00007497B6813438B61054B9A697B6813401F
:1023C000FB60FB6800BF1437BD4680BC704700BF90
:1023D0000010024080B58CB000AF07F11803002256
:1023E0001A605A609A60DA601A615A613B1D0022D5
:1023F0001A605A609A60DA601A610820FFF7D2FF0B
:102400004CF2C0037B600923BB600323FB60042301
:102410003B613B1D1946164804F054F94FF4001077
:10242000FFF7A8FF1348FFF795FF1248FFF771FF6A
:102430001048FFF75FFF0023BB610F4BFB610023D8
:102440003B6200237B624FF48063BB624FF48043A6
:10245000FB6207F118031946064804F089FA0021C7
:102460000448FFF765FF00BF3037BD4680BD00BFA1
:10247000000C014000540040A086010080B483B0ED
:1024800000AF78607B685B6903F08003802B0CBF32
:1024900001230023DBB218460C37BD4680BC7047D1
:1024A00080B483B000AF78607B685B6903F0400361
:1024B000402B0CBF01230023DBB218460C37BD466E
:1024C00080BC704780B483B000AF78607B685B6984
:1024D00003F00103012B0CBF01230023DBB21846DC
:1024E0000C37BD4680BC704780B483B000AF7860C5
:1024F0007B685B6903F00203022B0CBF01230023FE
:10250000DBB218460C37BD4680BC704780B485B03E
:1025100000AF78607B685B69FB60FB687B689B69E8
:10252000FB60FB6800BF1437BD4680BC704780B4B9
:1025300083B000AF786039607B681B6823F48062E9
:102540003B681A437B681A6000BF0C37BD4680BCED
:10255000704780B483B000AF78607B681B6843F439
:1025600080727B681A6000BF0C37BD4680BC704724
:1025700080B483B000AF78607B681B6843F400725E
:102580007B681A6000BF0C37BD4680BC704780B4C2
:1025900083B000AF78607B681B6823F400627B68BF
:1025A0001A6000BF0C37BD4680BC704780B483B052
:1025B00000AF78607B681B69DBB218460C37BD46FC
:1025C00080BC704780B483B000AF78600B46FB706E
:1025D0007B681B6923F0FF02FB781A437B681A6152
:1025E00000BF0C37BD4680BC7047000080B582B08C
:1025F00000AF78600B48FFF7CAFF4FF4806178683E
:10260000FFF795FF7868FFF7A4FF00BF7868FFF732
:1026100059FF0346002BF9D07B685B6900BF083780
:10262000BD4680BD0054004080B582B000AF7860E8
:102630000B46FB70FB7819467868FFF7C3FF00BFB5
:102640007868FFF751FF0346002BF9D07868FFF751
:102650005DFF00BF0837BD4680BD80B582B000AFCA
:1026600078600B46FB70FB7819467868FFF7AAFF85
:1026700000BF7868FFF702FF0346002BF9D000BFC8
:1026800000BF0837BD4680BD80B586B000AFF8609A
:10269000B9601346FB800023FB821AE0FA8AFB88AC
:1026A000013B9A420FDA00BFF868FFF7E7FE0346E6
:1026B000002BF9D0FB8ABA6813441B781946F868D6
:1026C000FFF780FF02E00748FFF752FFFB8A013364
:1026D000FB82FA8AFB889A42E0D300BF00BF18371A
:1026E000BD4680BD0054004080B582B000AF786028
:1026F0007868FFF73DFF00BF0837BD4680BD80B555
:1027000082B000AF78600B46FB70FB7843F00103AA
:10271000DBB219467868FFF755FF00BF7868FFF70E
:10272000E3FE0346002BF9D07868FFF7EFFE00BF09
:102730000837BD4680BD000090B587B000AFF86097
:10274000B9601346FB800023FB822DE0FA8AFB88E8
:10275000013B9A420FDA00BF1848FFF7A1FE03467B
:10276000002BF9D0FB8ABA68D4181448FFF71EFF73
:102770000346237015E000211048FFF7D8FE0F48EC
:10278000FFF7F6FE00BF0D48FFF78AFE0346002B59
:10279000F9D0FB8ABA68D4180848FFF707FF034648
:1027A0002370FB8A0133FB82FA8AFB889A42CDD3DD
:1027B00000BF00BF1C37BD4690BD00BF00540040A5
:1027C00080B582B000AF0346FB800B467B71134699
:1027D0003B710D48FFF70AFFFB88DBB219460A4838
:1027E000FFF722FF7B7919460748FFF736FF3B7951
:1027F00019460548FFF731FF0348FFF775FF00BF93
:102800000837BD4680BD00BF0054004080B582B08F
:1028100000AF03463A60FB800B467B710B48FFF725
:10282000E5FEFB88DBB219460848FFF7FDFE7B7921
:1028300019460648FFF711FF022239680348FFF7DF
:1028400023FF00BF0837BD4680BD00BF00540040D5
:1028500080B582B000AF3A601A460346FB800B4653
:102860007B7113463B710C48FFF7C0FEFB88DBB25F
:1028700019460948FFF7D8FE7B7919460648FFF745
:10288000ECFE3B799BB21A4639680348FFF7FCFE21
:1028900000BF0837BD4680BD0054004080B582B0FF
:1028A00000AF03460A46FB8013467B710A48FFF7D8
:1028B0009DFEFB88DBB219460748FFF7B5FE7B7922
:1028C00019460548FFF7C9FE0348FFF70DFF00BF93
:1028D0000837BD4680BD00BF0054004080B582B0BF
:1028E00000AF03460A46FB8013467B710848FFF79A
:1028F0007DFEFB88DBB219460548FFF795FE7B7924
:1029000019460348FFF7A9FE00BF0837BD4680BD42
:102910000054004080B584B000AF03460A46FB80F7
:1029200013467B710023FB731148FFF75FFEFB88A2
:10293000DBB219460E48FFF777FE7B7919460C4843
:10294000FFF78BFE0A48FFF751FEFB88DBB2194602
:102950000748FFF7D4FE07F10F0301221946044888
:10296000FFF7EAFEFB7B18461037BD4680BD00BF6F
:102970000054004080B582B000AF03463A60FB804F
:102980000B467B710F48FFF731FEFB88DBB219461F
:102990000C48FFF749FE7B7919460A48FFF75DFEB0
:1029A0000848FFF723FEFB88DBB219460548FFF70E
:1029B000A6FE022239680348FFF7BEFE00BF0837B3
:1029C000BD4680BD0054004080B582B000AF0346D4
:1029D0003A60FB800B467B710F48FFF707FEFB88D0
:1029E000DBB219460C48FFF71FFE7B7919460A48EF
:1029F000FFF733FE0848FFF7F9FDFB88DBB2194605
:102A00000548FFF77CFE032239680348FFF794FE70
:102A100000BF0837BD4680BD0054004080B582B07D
:102A200000AF03463A60FB800B467B710848FFF716
:102A3000DDFDFB88DBB219460548FFF760FE042286
:102A400039680348FFF778FE00BF0837BD4680BDF0
:102A50000054004080B582B000AF3A601A46034689
:102A6000FB800B467B7113463B711148FFF7BEFD9F
:102A7000FB88DBB219460E48FFF7D6FD7B79194675
:102A80000B48FFF7EAFD0A48FFF7B0FDFB88DBB211
:102A900019460748FFF733FE3B799BB21A4639685F
:102AA0000348FFF749FE00BF0837BD4680BD00BFA1
:102AB0000054004080B500AF094B0A4A1A60084B29
:102AC00005225A60064B40F6FF729A60044801F0F6
:102AD0003DFF0346002B01D000F0B6FD00BF80BDD6
:102AE000AC0100200030004080B483B000AF03464A
:102AF000FB7197F90730002B0BDBFB7903F01F020A
:102B0000064997F907305B09012000FA02F241F803
:102B1000232000BF0C37BD4680BC704700E100E0B9
:102B200080B483B000AF0346FB7197F90730002BE8
:102B300012DBFB7903F01F020A4997F907305B09A2
:102B4000012000FA02F2203341F82320BFF34F8F17
:102B500000BFBFF36F8F00BF00BF0C37BD4680BC06
:102B6000704700BF00E100E080B500AF00F0CEF993
:102B70000A4B1B78DBB2012BF8D1094801F028FF82
:102B800000F036FE054B00221A7000F0EFF800F05E
:102B900029F900F013F800F02BFEE7E7D60100203A
:102BA000AC01002080B400AF034B01221A7000BFBB
:102BB000BD4680BC704700BFD601002080B582B002
:102BC00002AF4D4B93F900301A464C4B009313461D
:102BD0004B4A4C494C4806F06DF84C4B1B881A4642
:102BE0004B4B009313464B4A4B494C4806F062F856
:102BF0004B4B1B881A464B4B009313464A4A464997
:102C00004A4806F057F84A4B1B881A46494B00932E
:102C10001346494A49494A4806F04CF8494B1B7843
:102C20001A46494B00931346484A4949494806F019
:102C300041F82620FFF774FF334801F085F9374843
:102C400001F082F9394801F07FF93D4801F07CF943
:102C5000404801F079F90021002000F0F5FA264BF8
:102C600093F900301A46254B3B49274806F022F8D5
:102C7000254800F0CBFA0021052000F0E5FA314BA1
:102C80001B781A46304B3549324806F013F8314864
:102C900000F0BCFA0021092000F0D6FA1B4B1B887B
:102CA0001A461B4B2E491D4806F004F81B4800F03D
:102CB000ADFA0121002000F0C7FA194B1B881A4A0F
:102CC00028491A4805F0F6FF184800F09FFA01213C
:102CD000082000F0B9FA164B1B88174A22491848F9
:102CE00005F0E8FF164800F091FA2620FFF7FCFEF9
:102CF00000BFBD4680BD00BF35000020040000209D
:102D0000000000207C9B0008D80100203600002035
:102D10000C000020080000208C9B0008E801002027
:102D20003A0000201400002010000020F8010020CC
:102D30003C0000202000002018000020989B000884
:102D40000802002038000020280000202400002075
:102D5000A49B000818020020B09B0008B89B000844
:102D6000C09B0008C89B0008D49B000880B500AF3A
:102D70002620FFF7D5FEFEF75BFC03461846FEF75C
:102D80005BF803465AB20F4B1A70FEF7A1FC0346DC
:102D90001846FEF777F803469AB20B4B1A800B4998
:102DA0000B48FFF72DFA0B4B93F900200A4B1B78C9
:102DB0009BB20A490A48FFF72FF82620FFF794FE36
:102DC00000BF80BD2A0000202C0000202E00002023
:102DD0002B000020340000203800002030000020AC
:102DE0003200002080B500AF304B93F900309BB229
:102DF0002F491846FFF714F903462E491846FFF7E6
:102E00009AF803465AB22C4B1A702C4B1B882C494B
:102E10001846FFF705F903462A491846FFF78BF8CD
:102E200003461A46284B1A80284B93F900309BB270
:102E300027491846FFF7F4F8034626491846FFF7D6
:102E40007AF803465AB2244B1A70244B1B789BB273
:102E500023491846FFF7E4F8034622491846FFF7CE
:102E60006AF80346DAB2204B1A70204B1B882049BF
:102E70001846FFF7D5F803461E491846FFF75BF8DA
:102E800003461A461C4B1A801C4B1B881C491846CB
:102E9000FFF7C6F803461B491846FFF74CF80346F0
:102EA0001A46194B1A8000BF80BD00BF2A000020BF
:102EB0007002002028020020340000202C00002096
:102EC0009002002040020020360000202B0000204D
:102ED0008002002034020020350000202E00002057
:102EE000A00200204C020020380000203200002008
:102EF000C0020020640200203C00002030000020BE
:102F0000B0020020580200203A00002080B500AF37
:102F100004F0D8FE01F0CCF90346164AA2FB0323C5
:102F20009B0B9AB2144B1A80134B1A88134B5A807E
:102F3000114B1B88124AA2FB03235B099AB20F4B69
:102F40009A80104B93F900309AB20C4BDA800E4BFA
:102F50001B789AB2094B1A810C4B1A88074B5A817D
:102F60000B4B1A88054B9A810A4B1A88034BDA815E
:102F700000BF80BD73B2E745CE02002040000020B4
:102F80008988888835000020380000203A00002019
:102F90003C0000203600002080B485B000AF78608F
:102FA0000B467B8013463B800023FB737B8840F6F7
:102FB000B83293422AD97A883B88134440F6C1320A
:102FC000934223DC7B88154A12889B1ABB6019E068
:102FD000134ABB6832F813301B0A99B27B685A1C3B
:102FE0007A60CAB21A700E4ABB6832F813107B6856
:102FF0005A1C7A60CAB21A70BB680133BB603B8846
:10300000013B3B803B88002BE2D101E00123FB73B5
:10301000FB7B18461437BD4680BC70473E0000203D
:103020004000002080B485B000AFF860084611462B
:103030001A4603467B810B463B811346FB710123F5
:1030400018461437BD4680BC704780B485B000AFC9
:10305000F860084611461A4603467B810B463B81C1
:103060001346FB71012318461437BD4680BC7047D8
:1030700080B483B000AF78600B467B8013463B8002
:10308000012318460C37BD4680BC704780B582B01E
:1030900000AF78600B46FB701346BB700948FFF722
:1030A000A5FABB7819460748FFF7BEFAFB78194620
:1030B0000448FFF7D2FA0348FFF716FB00BF0837B2
:1030C000BD4680BD0054004080B483B000AF78603E
:1030D0000A4B1B680A4AA2FB0323DB0D7A6802FB3A
:1030E00003F37B6000BF7B685A1E7A60002BFAD125
:1030F00000BF00BF0C37BD4680BC704750000020A9
:10310000B5FA9BEE80B582B000AF0346FB71FB7948
:103110004E2219460348FFF7B9FF00BF0837BD46E6
:1031200080BD00BF0054004080B582B000AF0346B0
:10313000FB71FB791B01FB71174B1A78FB79134369
:10314000DBB21846FFF7DEFF134B1B7843F0040396
:10315000DAB2114B1A70104B1A78FB791343DBB2B9
:103160001846FFF7CFFF0120FFF7AEFF0A4B1B7891
:1031700023F00403DAB2084B1A70074B1A78FB7974
:103180001343DBB21846FFF7BDFF3220FFF79CFF69
:1031900000BF0837BD4680BD3403002080B584B031
:1031A00000AF03460A46FB711346BB71BB79002B87
:1031B0000CD1154B1B7823F00103DAB2124B1A70B5
:1031C000114B1B781846FFF79DFF0BE00E4B1B7849
:1031D00043F00103DAB20C4B1A700B4B1B78184604
:1031E000FFF790FF0023FB73FB791B09FB73FB7B4D
:1031F0001846FFF799FFFB791846FFF795FF00BFC8
:103200001037BD4680BD00BF3403002080B584B0B8
:1032100000AF78600023FB730AE0FB7B7A681344FD
:103220001B7801211846FFF7B9FFFB7B0133FB73C5
:10323000FB7B7A6813441B780D2BEED100BF00BFD7
:103240001037BD4680BD000080B582B000AF034698
:103250000A46FB711346BB71BB79032B3AD801A216
:1032600052F823F07532000887320008A1320008B6
:10327000BB320008FB7963F07F03DBB20021184604
:10328000FFF78CFF26E0FB794033DBB25BB263F0E3
:103290007F035BB2DBB200211846FFF77FFF19E026
:1032A000FB791433DBB25BB263F07F035BB2DBB25A
:1032B00000211846FFF772FF0CE0FB795433DBB2B4
:1032C0005BB263F07F035BB2DBB200211846FFF70D
:1032D00065FF00BF00BF0837BD4680BD80B500AFA9
:1032E000322004F015F80020FFF70CFF642004F0F2
:1032F0000FF80320FFF718FF41F29410FFF7E4FEE8
:103300000320FFF711FF41F29410FFF7DDFE0320C9
:10331000FFF70AFFC820FFF7D7FE0220FFF704FFE0
:1033200000212820FFF73AFF00210C20FFF736FF8D
:10333000012003F0EDFF00210120FFF72FFF022005
:1033400003F0E6FF00210620FFF728FF012003F02D
:10335000DFFF00210220FFF721FF022003F0D8FF4A
:103360000C4B1B7843F00803DAB20A4B1A70094B76
:103370001B781846FFF7C6FE064B1B7823F00203A6
:10338000DAB2044B1A70034B1B781846FFF7BAFEEB
:1033900000BF80BD3403002080B400AF044B1B6825
:1033A000034A43F48033136000BFBD4680BC7047BE
:1033B0000010024080B400AF064B1B6803F40033DA
:1033C000B3F5003F0CBF01230023DBB21846BD4616
:1033D00080BC70470010024080B400AF044B5B6AB1
:1033E000034A43F00103536200BFBD4680BC7047EF
:1033F0000010024080B400AF064B5B6A03F002038A
:10340000022B0CBF01230023DBB21846BD4680BC53
:10341000704700BF0010024080B483B000AF7860F6
:10342000064B5B6823F0030204497B6813434B603F
:1034300000BF0C37BD4680BC704700BF0010024083
:1034400080B400AF034B5B6803F00C031846BD4625
:1034500080BC70470010024080B483B000AF786039
:10346000064B5B6823F0F00204497B6813434B6012
:1034700000BF0C37BD4680BC704700BF0010024043
:1034800080B483B000AF7860064B5B6823F4E062E1
:1034900004497B6813434B6000BF0C37BD4680BCBA
:1034A000704700BF0010024080B483B000AF786066
:1034B000064B5B6823F4605204497B6813434B60FE
:1034C00000BF0C37BD4680BC704700BF00100240F3
:1034D00080B400AF044B1B68034A43F08073136051
:1034E00000BFBD4680BC70470010024080B400AFF2
:1034F000064B1B6803F00073B3F1007F0CBF012380
:103500000023DBB21846BD4680BC70470010024065
:1035100080B483B000AF78603960084B5B6823F4F7
:103520007C127B6803F440313B680B43034913432F
:103530004B6000BF0C37BD4680BC70470010024096
:1035400080B483B000AF7860064B1B6823F007029D
:1035500004497B6813430B6000BF0C37BD4680BC39
:10356000704700BF0020024080B400AF034B1B68CF
:1035700003F007031846BD4680BC70470020024098
:1035800080B500AF00F03CFE00F014F8FEF7B2FD8D
:1035900000F038FC00F03AFD00F090FD00F0C0FBB8
:1035A000FEF718FFFFF786FA00F0BCF8FFF7DCFA29
:1035B000FEE7000080B500AF0020FFF7C1FF00BFAD
:1035C000FFF7D2FF0346002BFAD1FFF7E5FE00BF5D
:1035D000FFF7F0FE0346012BFAD1FFF7FDFE00BF17
:1035E000FFF708FF0346012BFAD100214FF480308A
:1035F000FFF78EFFFFF76CFF00BFFFF777FF034673
:10360000012BFAD18020FFF727FF0020FFF738FFBA
:103610000020FFF749FF0220FFF7FEFE00BFFFF783
:103620000FFF0346082BFAD1064803F095FE0F2042
:1036300000F0FCFD0346002B01D000F005F800BFB0
:1036400080BD00BF00127A0080B400AF72B600BF28
:10365000FEE780B483B000AF78607B681B6843F0FE
:1036600001027B681A6000BF0C37BD4680BC704702
:1036700080B483B000AF786039607B681A6A3B68B9
:103680001A437B681A6200BF0C37BD4680BC704786
:1036900080B483B000AF78607B68DB6843F00102E0
:1036A0007B68DA6000BF0C37BD4680BC704780B4D1
:1036B00083B000AF786039603B681B0A9AB27B68C0
:1036C0001A6100BF0C37BD4680BC704780B483B020
:1036D00000AF786039603B681B0A9AB27B685A6118
:1036E00000BF0C37BD4680BC704780B485B000AFCA
:1036F000786039607B68DB68FB603B681B0A9BB2C3
:10370000BB60FA68BB6813401A04FB68D943BB6806
:103710000B401A437B681A6100BF1437BD4680BC5A
:103720007047000080B584B002AF2849284805F0F2
:10373000C1FA274800F008FC01212648FFF798FF4E
:103740002448FFF786FF2348FFF7A2FFFFF7C6FDD7
:1037500021491F4805F0AEFA1D4800F0F5FBFEF7C1
:1037600093FA1E491A4805F0A5FA194800F0ECFB37
:10377000FEF7F2FAFEF702FD1949154805F09AFA2C
:10378000134800F0E1FB174804F07CFB164804F0F6
:1037900087FB002300934FF41653002201210020E1
:1037A00004F0F8F90346FB7104F070FA0346FB716C
:1037B00000F036F80D49064805F07CFA044800F0A0
:1037C000C3FB00BF0837BD4680BD00BFE09B0008BB
:1037D000B801002000080040F49B0008049C000889
:1037E000189C00083C030020840300202C9C000847
:1037F00080B500AF02490348FFF777FF00BF80BDE7
:10380000200020040010014080B500AF41F21001FB
:103810000248FFF74CFF00BF80BD00BF0008014019
:1038200080B500AF41F210010248FFF74FFF00BF23
:1038300080BD00BF0008014080B485B000AF154BCB
:103840009B69144A43F001039361124B9B6903F097
:103850000103BB60BB680F4BDB690E4A43F080532A
:10386000D3610C4BDB6903F080537B607B680A4BB0
:103870005B68FB60FB6823F0E063FB60FB6843F080
:103880000073FB60044AFB68536000BF1437BD46F9
:1038900080BC7047001002400000014080B483B03B
:1038A00000AF78607B686FF001021A6100BF0C37CF
:1038B000BD4680BC704780B400AFFEE780B400AF67
:1038C000FEE780B400AFFEE780B400AFFEE780B44F
:1038D00000AFFEE780B400AF00BFBD4680BC7047BC
:1038E00080B400AF00BFBD4680BC704780B400AF5D
:1038F00000BFBD4680BC704780B500AF00F0C6FC7D
:1039000000BF80BD80B500AF024801F0CBF900BF19
:1039100080BD00BF3C03002080B500AF0348FFF727
:10392000BDFFFFF73FF900BF80BD00BF00080040AA
:1039300080B500AF024802F0C5F800BF80BD00BFEF
:103940008403002080B400AF01231846BD4680BC2C
:10395000704780B582B000AF7860396004F06AFECD
:10396000034616221A604FF0FF3318460837BD464B
:1039700080BD80B582B000AF78604FF0FF317868CD
:10398000FFF7E7FFFEE780B586B000AFF860B960EB
:103990007A6000237B610AE0AFF300800146BB68D8
:1039A0005A1CBA60CAB21A707B6901337B617A69AA
:1039B0007B689A42F0DB7B6818461837BD4680BDAD
:1039C00080B586B000AFF860B9607A6000237B6193
:1039D00009E0BB685A1CBA601B781846AFF3008038
:1039E0007B6901337B617A697B689A42F1DB7B6892
:1039F00018461837BD4680BD80B483B000AF7860EC
:103A00004FF0FF3318460C37BD4680BC704780B47A
:103A100083B000AF786039603B684FF400525A6061
:103A2000002318460C37BD4680BC704780B483B075
:103A300000AF7860012318460C37BD4680BC704744
:103A400080B485B000AFF860B9607A600023184692
:103A50001437BD4680BC704780B586B000AF786033
:103A6000144A154BD31A7B617B693B61134B1B686E
:103A7000002B02D1114B124A1A60104B1A687B6856
:103A800013443A699A4207D204F0D4FD03460C224B
:103A90001A604FF0FF3309E0084B1B68FB60074BCF
:103AA0001A687B681344054A1360FB681846183788
:103AB000BD4680BD005000200004000038030020F7
:103AC0005005002080B400AF00BFBD4680BC7047E9
:103AD00080B400AF044BDB681B0A03F007031846F1
:103AE000BD4680BC704700BF00ED00E080B483B0ED
:103AF00000AF0346FB7197F90730002B0BDBFB7916
:103B000003F01F02064997F907305B09012000FA0C
:103B100002F241F8232000BF0C37BD4680BC70473D
:103B200000E100E080B483B000AF03463960FB7170
:103B300097F90730002B0ADB3B68DAB20C4997F99A
:103B400007301201D2B20B4483F800230AE03B682D
:103B5000DAB20849FB7903F00F03043B1201D2B239
:103B60000B441A7600BF0C37BD4680BC704700BFBF
:103B700000E100E000ED00E080B489B000AFF86043
:103B8000B9607A60FB6803F00703FB61FB69C3F16E
:103B90000703042B28BF0423BB61FB690433062BF6
:103BA00002D9FB69033B00E000237B614FF0FF3249
:103BB000BB6902FA03F3DA43BB681A407B699A4097
:103BC0004FF0FF317B6901FA03F3D9437B680B4067
:103BD000134318462437BD4680BC704780B485B077
:103BE00000AF7860084BDA6907497B681343CB6103
:103BF000054BDA697B681340FB60FB6800BF143734
:103C0000BD4680BC704700BF0010024080B483B046
:103C100000AF78607B681B6823F080027B681A60C5
:103C200000BF0C37BD4680BC7047000080B485B033
:103C300000AF786039603B68012B1CD03B68042BD7
:103C400017D03B68102B12D03B68402B0DD03B683F
:103C5000B3F5807F07D03B68B3F5806F01D10523B2
:103C60000AE0062308E0042306E0032304E002231D
:103C700002E0012300E00023FB737B681833194640
:103C8000FB7B0A4AD35C0B44BB60BB681A68FB7BB6
:103C90000749CB5C194604238B40DB431A40BB68C1
:103CA0001A6000BF1437BD4680BC7047389D0008BD
:103CB000409D000880B483B000AF786039607B68B5
:103CC0009B6823F4804323F007033A681A437B6818
:103CD0009A6000BF0C37BD4680BC704780B483B08B
:103CE00000AF786039607B685B6823F070023B68E6
:103CF0001A437B685A6000BF0C37BD4680BC7047D2
:103D000080B483B000AF78607B689B6823F080024A
:103D10007B689A6000BF0C37BD4680BC70470000CE
:103D200080B58EB000AF07F1280300221A605A60F8
:103D30009A60DA6007F1200300221A605A603B1D86
:103D400000221A605A609A60DA601A615A619A61B8
:103D50002A4B2B4A1A60294B4F225A60274B0022CC
:103D60009A60264B0522DA60244B00221A61234B0D
:103D700000229A61214800F06DFE0346002B01D01D
:103D8000FFF762FC4FF48053BB6207F1280319462A
:103D90001A4801F0EBF80346002B01D0FFF754FC62
:103DA000164800F027FF0346002B01D0FFF74CFC1C
:103DB00000233B6200237B6207F1200319460F4872
:103DC00001F040FC0346002B01D0FFF73DFC00232F
:103DD0007B600023BB600023FB6000237B613B1DF5
:103DE00000221946054801F065F80346002B01D072
:103DF000FFF72AFC00BF3837BD4680BD3C030020DA
:103E00000004004080B58EB000AF07F1240300220B
:103E10001A605A609A60DA601A613B1D2022002104
:103E2000184604F051FC0420FFF7D8FEFFF750FEBF
:103E30000346002200211846FFF79EFE034619465E
:103E40001E20FFF76FFE1E20FFF750FE41F657338E
:103E5000BB840023BB6241F65733FB6200233B6304
:103E600007F124031946144802F030FF1248FFF707
:103E7000CDFE00211048FFF71DFF00237B600023CB
:103E8000BB600023FB6000233B6100237B613B1D83
:103E90001A460121084802F077FF01210648FFF782
:103EA000C5FE00210448FFF719FF0348FFF728FF6C
:103EB00000BF3837BD4680BD0008004080B584B0E3
:103EC00000AF78607B681B680D4A934213D10D4B9D
:103ED000DB690C4A43F00203D3610A4BDB6903F050
:103EE0000203FB60FB68002200211D2000F0C1FAE4
:103EF0001D2000F0DAFA00BF1037BD4680BD00BFBC
:103F0000000400400010024080B483B000AF78602D
:103F10007B681B6803F08003802B0CBF0123002308
:103F2000DBB218460C37BD4680BC704780B483B006
:103F300000AF78600B46FB70FA787B685A6000BF70
:103F40000C37BD4680BC704780B584B000AF786048
:103F50000023FB7311E000BF0D48FFF7D5FF0346B8
:103F6000002BF9D0FB7B7A6813441B78194608486C
:103F7000FFF7DCFFFB7B0133FB73FB7B7A681344A9
:103F80001B78002BE7D100BF1037BD4680BD00BFB6
:103F90000038014080B485B000AF7860084B9A6962
:103FA00007497B6813438B61054B9A697B68134013
:103FB000FB60FB6800BF1437BD4680BC704700BF84
:103FC0000010024080B483B000AF78607B68DB688B
:103FD00043F400527B68DA6000BF0C37BD4680BCFA
:103FE000704780B483B000AF78607B681B6923F4AE
:103FF00090427B681A617B685B6923F02A027B68C8
:104000005A6100BF0C37BD4680BC704780B58CB08C
:1040100000AF07F1140300221A605A609A60DA6058
:104020001A615A619A613B4600221A605A609A608E
:10403000DA601A614FF48040FFF7ACFF0420FFF70D
:10404000A9FF1A4B3B6009237B600323BB6000235D
:10405000FB603B461946164802F034FB154B3B60AB
:1040600004237B603B461946114802F02BFB4FF4BA
:1040700016537B610023BB610023FB6100233B627D
:104080000C237B620023BB620023FB6207F1140355
:104090001946094803F0DCF80748FFF7A2FF064875
:1040A000FFF790FF00BF3037BD4680BD020002041D
:1040B00000080140040004040038014080B500AF4E
:1040C000114B124A1A60104B4FF416525A600E4BA5
:1040D00000229A600C4B0022DA600B4B00221A611E
:1040E000094B0C225A61084B00229A61064B0022B0
:1040F000DA61054801F016FB0346002B01D0FFF7FB
:10410000A3FA00BF80BD00BF84030020004400402C
:1041100080B588B000AF786007F1100300221A6004
:104120005A609A60DA607B681B681F4A934237D1F5
:104130001E4BDB691D4A43F40033D3611B4BDB6923
:1041400003F40033FB60FB68184B9B69174A43F08C
:1041500004039361154B9B6903F00403BB60BB68C8
:1041600004233B6102237B610323FB6107F11003FE
:1041700019460F4800F066FA08233B6100237B6173
:104180000023BB6107F110031946094800F05AFAF1
:1041900000220021262000F06CF9262000F085F98D
:1041A00000BF2037BD4680BD0044004000100240E3
:1041B00000080140FFF786FC0B480C490C4A00231D
:1041C00002E0D458C4500433C4188C42F9D3094ACD
:1041D000094C002301E013600432A242FBD304F037
:1041E00041FAFFF7CDF970470000002040010020A0
:1041F0007CA000084001002050050020FEE70000E0
:1042000080B500AF084B1B68074A43F010031360EA
:10421000032000F023F90F2000F008F8FFF70CFB53
:104220000023184680BD00BF0020024080B582B048
:1042300000AF7860124B1A68124B1B7819464FF486
:104240007A73B3FBF1F3B2FBF3F3184600F03BF9DA
:104250000346002B01D001230EE07B680F2B0AD808
:10426000002279684FF0FF3000F003F9064A7B68BE
:104270001360002300E0012318460837BD4680BDC7
:1042800050000020580000205400002080B400AFEF
:10429000054B1B781A46054B1B681344034A1360F1
:1042A00000BFBD4680BC704758000020CC030020F2
:1042B00080B400AF024B1B681846BD4680BC7047F7
:1042C000CC03002080B485B000AF78607B6803F039
:1042D0000703FB600C4BDB68BB60BA684FF6FF035B
:1042E0001340BB60FB681A02BB68134343F0BF6313
:1042F00043F40033BB60044ABB68D36000BF14378B
:10430000BD4680BC704700BF00ED00E080B400AF48
:10431000044BDB681B0A03F007031846BD4680BC4C
:10432000704700BF00ED00E080B483B000AF0346EB
:10433000FB7197F90730002B0BDBFB7903F01F02B1
:10434000064997F907305B09012000FA02F241F8AB
:10435000232000BF0C37BD4680BC704700E100E061
:1043600080B483B000AF03463960FB7197F9073022
:10437000002B0ADB3B68DAB20C4997F907301201CF
:10438000D2B20B4483F800230AE03B68DAB2084952
:10439000FB7903F00F03043B1201D2B20B441A76EF
:1043A00000BF0C37BD4680BC704700BF00E100E095
:1043B00000ED00E080B489B000AFF860B9607A60C9
:1043C000FB6803F00703FB61FB69C3F10703042BE0
:1043D00028BF0423BB61FB690433062B02D9FB69A8
:1043E000033B00E000237B614FF0FF32BB6902FA20
:1043F00003F3DA43BB681A407B699A404FF0FF3100
:104400007B6901FA03F3D9437B680B4013431846D9
:104410002437BD4680BC704780B582B000AF78605D
:104420007B68013BB3F1807F01D301230FE00A4A8F
:104430007B68013B53600F214FF0FF30FFF790FF87
:10444000054B00229A60044B07221A60002318468D
:104450000837BD4680BD00BF10E000E080B582B0E7
:1044600000AF78607868FFF72DFF00BF0837BD46C2
:1044700080BD80B586B000AF0346B9607A60FB733B
:1044800000237B61FFF742FF78617A68B968786939
:10449000FFF790FF024697F90F3011461846FFF7D5
:1044A0005FFF00BF1837BD4680BD80B582B000AF4A
:1044B0000346FB7197F907301846FFF735FF00BF39
:1044C0000837BD4680BD80B582B000AF786078689F
:1044D000FFF7A2FF034618460837BD4680BD80B4EB
:1044E00085B000AF78600023FB737B6893F82130C0
:1044F000DBB2022B08D07B6804229A637B6800221F
:1045000083F82020012320E07B681B681A687B6801
:104510001B6822F00E021A607B681B681A687B68B1
:104520001B6822F001021A607B681A6C7B68DB6BE7
:10453000012101FA02F25A607B68012283F82120EE
:104540007B68002283F82020FB7B18461437BD4689
:1045500080BC704780B584B000AF78600023FB73E7
:104560007B6893F82130DBB2022B05D07B680422F4
:104570009A630123FB7351E07B681B681A687B68B0
:104580001B6822F00E021A607B681B681A687B6841
:104590001B6822F001021A607B681B68224A934262
:1045A00029D07B681B68214A934222D07B681B6814
:1045B0001F4A93421AD07B681B681E4A934212D04E
:1045C0007B681B681C4A93420AD07B681B681B4AA5
:1045D000934202D14FF480130EE04FF080730BE052
:1045E0004FF4803308E04FF4805305E04FF48073BC
:1045F00002E0102300E00123114A53607B6801228E
:1046000083F821207B68002283F820207B685B6B85
:10461000002B03D07B685B6B78689847FB7B184660
:104620001037BD4680BD00BF080002401C0002409C
:104630003000024044000240580002406C0002403A
:104640000000024080B48BB000AF78603960002376
:104650007B6200233B6269E101227B6A02FA03F379
:10466000FB613B681B68FA691340BB61BA69FB696F
:104670009A4240F058813B685B689A4A93425ED008
:10468000984A934275D8984A934258D0964A934292
:104690006FD8964A934252D0944A934269D8944A2A
:1046A00093424CD0924A934263D8924A934246D066
:1046B000904A93425DD8122B2AD8122B59D801A2C6
:1046C00052F823F03F470008194700082B4700081D
:1046D0006D470008734700087347000873470008D8
:1046E00073470008734700087347000873470008C2
:1046F00073470008734700087347000873470008B2
:104700007347000873470008214700083547000831
:10471000794A934213D02CE03B68DB683B6229E086
:104720003B68DB6804333B6224E03B68DB680833AA
:104730003B621FE03B68DB680C333B621AE03B687E
:104740009B68002B02D104233B6213E03B689B680B
:10475000012B05D108233B627B68FA691A6109E0E5
:1047600008233B627B68FA695A6103E000233B62DD
:1047700000E000BFBB69FF2B01D87B6801E07B68CC
:1047800004337B61BB69FF2B02D87B6A9B0002E08C
:104790007B6A083B9B003B617B691A680F213B6980
:1047A00001FA03F3DB431A40396A3B6901FA03F368
:1047B0001A437B691A603B685B6803F08053002BE7
:1047C00000F0B1804D4B9B694C4A43F0010393616B
:1047D0004A4B9B6903F00103BB60BB68484A7B6A94
:1047E0009B08023352F82330FB607B6A03F003031B
:1047F0009B000F2202FA03F3DB43FA681340FB60CD
:104800007B68404A934213D07B683F4A93420DD065
:104810007B683E4A934207D07B683D4A934201D170
:10482000032306E0042304E0022302E0012300E066
:1048300000237A6A02F0030292009340FA6813435D
:10484000FB602F497B6A9B080233FA6841F82320FA
:104850003B685B6803F48013002B06D02D4B9A68ED
:104860002C49BB6913438B6006E02A4B9A68BB69ED
:10487000DB43284913408B603B685B6803F40013FB
:10488000002B06D0234BDA682249BB691343CB6067
:1048900006E0204BDA68BB69DB431E491340CB605E
:1048A0003B685B6803F40033002B06D0194B5A6851
:1048B0001849BB6913434B6006E0164B5A68BB6945
:1048C000DB43144913404B603B685B6803F480335F
:1048D000002B21D00F4B1A680E49BB6913430B60A4
:1048E00021E000BF00003210000031100000221053
:1048F00000002110000012100000111000100240F2
:104900000000014000080140000C0140001001407F
:1049100000140140000401400B4B1A68BB69DB43E3
:10492000094913400B607B6A01337B623B681A685C
:104930007B6A22FA03F3002B7FF48EAE00BF00BF28
:104940002C37BD4680BC70470004014080B584B060
:1049500000AF78607B68002B01D1012334E07B68D5
:104960001B684CF6CC421A607B681B6845F25552B6
:104970001A607B681B687A6852685A607B681B689B
:104980007A6892689A60FFF793FCF8600FE0FFF78F
:104990008FFC0246FB68D31A272B08D97B681B685B
:1049A000DB6803F00303002B01D003230CE07B68DA
:1049B0001B68DB6803F00303002BE8D17B681B68EE
:1049C0004AF6AA221A60002318461037BD4680BD59
:1049D00080B483B000AF78607B681B684AF6AA2277
:1049E0001A60002318460C37BD4680BC7047000093
:1049F00080B400AF024B1B681846BD4680BC7047B0
:104A00005000002080B500AFFFF7F2FF0246054BD3
:104A10005B681B0A03F007030349CB5C22FA03F32C
:104A2000184680BD00100240309D000880B500AFE0
:104A3000FFF7DEFF0246054B5B68DB0A03F0070366
:104A40000349CB5C22FA03F3184680BD00100240F4
:104A5000309D000880B582B000AF78607B68002B85
:104A600001D1012341E07B6893F83D30DBB2002B9C
:104A700006D17B68002283F83C207868FFF71EFA95
:104A80007B68022283F83D207B681A687B680433C8
:104A90001946104600F056FB7B68012283F8462039
:104AA0007B68012283F83E207B68012283F83F2047
:104AB0007B68012283F840207B68012283F8412033
:104AC0007B68012283F842207B68012283F843201F
:104AD0007B68012283F844207B68012283F845200B
:104AE0007B68012283F83D20002318460837BD4625
:104AF00080BD000080B485B000AF78607B6893F81B
:104B00003D30DBB2012B01D001233AE07B68022269
:104B100083F83D207B681B68DA687B681B6842F07D
:104B20000102DA607B681B68184A93420ED07B68EA
:104B30001B68B3F1804F09D07B681B68144A93420D
:104B400004D07B681B68134A934211D17B681B68B1
:104B50009B6803F00703FB60FB68062B10D07B68A3
:104B60001B681A687B681B6842F001021A6007E044
:104B70007B681B681A687B681B6842F001021A6038
:104B8000002318461437BD4680BC7047002C0140F6
:104B9000000400400008004080B483B000AF78609B
:104BA0007B681B68DA687B681B6822F00102DA60A8
:104BB0007B681B681A6A41F211131340002B0FD156
:104BC0007B681B681A6A40F244431340002B07D1EC
:104BD0007B681B681A687B681B6822F001021A60F8
:104BE0007B68012283F83D20002318460C37BD4620
:104BF00080BC704780B582B000AF78607B68002BC6
:104C000001D1012341E07B6893F83D30DBB2002BFA
:104C100006D17B68002283F83C20786800F039F8E0
:104C20007B68022283F83D207B681A687B68043326
:104C30001946104600F086FA7B68012283F8462068
:104C40007B68012283F83E207B68012283F83F20A5
:104C50007B68012283F840207B68012283F8412091
:104C60007B68012283F842207B68012283F843207D
:104C70007B68012283F844207B68012283F8452069
:104C80007B68012283F83D20002318460837BD4683
:104C900080BD80B483B000AF786000BF0C37BD46E4
:104CA00080BC704780B582B000AF78607B681B68BD
:104CB0001B6903F00203022B22D17B681B68DB68AF
:104CC00003F00203022B1BD17B681B686FF002020A
:104CD0001A617B6801221A777B681B689B6903F065
:104CE0000303002B03D0786800F010FA05E0786821
:104CF00000F003FA786800F012FA7B6800221A7755
:104D00007B681B681B6903F00403042B22D17B68BA
:104D10001B68DB6803F00403042B1BD17B681B6852
:104D20006FF004021A617B6802221A777B681B68A5
:104D30009B6903F44073002B03D0786800F0E6F918
:104D400005E0786800F0D9F9786800F0E8F97B6848
:104D500000221A777B681B681B6903F00803082B85
:104D600022D17B681B68DB6803F00803082B1BD18A
:104D70007B681B686FF008021A617B6804221A774F
:104D80007B681B68DB6903F00303002B03D07868A2
:104D900000F0BCF905E0786800F0AFF9786800F041
:104DA000BEF97B6800221A777B681B681B6903F0D9
:104DB0001003102B22D17B681B68DB6803F0100303
:104DC000102B1BD17B681B686FF010021A617B6887
:104DD00008221A777B681B68DB6903F44073002B99
:104DE00003D0786800F092F905E0786800F085F962
:104DF000786800F094F97B6800221A777B681B685A
:104E00001B6903F00103012B0ED17B681B68DB6873
:104E100003F00103012B07D17B681B686FF00102CF
:104E20001A61786803F078F97B681B681B6903F0E6
:104E30008003802B0ED17B681B68DB6803F0800346
:104E4000802B07D17B681B686FF080021A6178683D
:104E500000F05FFC7B681B681B6903F04003402B7C
:104E60000ED17B681B68DB6803F04003402B07D141
:104E70007B681B686FF040021A61786800F058F98F
:104E80007B681B681B6903F02003202B0ED17B6815
:104E90001B68DB6803F02003202B07D17B681B68AD
:104EA0006FF020021A61786800F02AFC00BF083712
:104EB000BD4680BD80B586B000AFF860B9607A604D
:104EC0000023FB75FB6893F83C30012B01D10223D2
:104ED00048E0FB68012283F83C207B680C2B39D822
:104EE00001A252F823F000BF1D4F0008554F0008E3
:104EF000554F0008554F00082B4F0008554F00082C
:104F0000554F0008554F0008394F0008554F00080D
:104F1000554F0008554F0008474F0008FB681B68B5
:104F2000B968184600F070F917E0FB681B68B968AB
:104F3000184600F0CFF910E0FB681B68B968184606
:104F400000F032FA09E0FB681B68B968184600F007
:104F500095FA02E00123FB7500BFFB68002283F88D
:104F60003C20FB7D18461837BD4680BD80B584B017
:104F700000AF786039600023FB737B6893F83C30A6
:104F8000012B01D10223B4E07B68012283F83C208D
:104F90007B68022283F83D207B681B689B68BB60AE
:104FA000BB6823F07703BB60BB6823F47F43BB601F
:104FB0007B681B68BA689A603B681B68B3F5005F42
:104FC0003ED0B3F5005F00F28780B3F5805F00F05C
:104FD0008680B3F5805F7FD8702B1AD0702B7BD87A
:104FE000602B50D0602B77D8502B3CD0502B73D8EF
:104FF000402B58D0402B6FD8302B64D0302B6BD83F
:10500000202B60D0202B67D8002B5CD0102B5AD0DF
:1050100062E07B6818683B6899683B685A683B683F
:10502000DB6800F0F0FA7B681B689B68BB60BB68BC
:1050300043F07703BB607B681B68BA689A604FE0F7
:105040007B6818683B6899683B685A683B68DB680E
:1050500000F0D9FA7B681B689A687B681B6842F489
:1050600080429A603CE07B6818683B6859683B68FE
:10507000DB681A4600F050FA7B681B68502118461E
:1050800000F0A7FA2CE07B6818683B6859683B6819
:10509000DB681A4600F06EFA7B681B6860211846D0
:1050A00000F097FA1CE07B6818683B6859683B6819
:1050B000DB681A4600F030FA7B681B68402118460E
:1050C00000F087FA0CE07B681A683B681B68194699
:1050D000104600F07EFA03E00123FB7300E000BFFE
:1050E0007B68012283F83D207B68002283F83C2006
:1050F000FB7B18461037BD4680BD80B483B000AF3F
:10510000786000BF0C37BD4680BC704780B483B068
:1051100000AF786000BF0C37BD4680BC704780B4DC
:1051200083B000AF786000BF0C37BD4680BC7047CD
:1051300080B483B000AF786000BF0C37BD4680BC40
:105140007047000080B485B000AF786039607B683C
:105150001B68FB607B68294A93420BD07B68B3F1E4
:10516000804F07D07B68264A934203D07B68254A4C
:10517000934208D1FB6823F07003FB603B685B68D7
:10518000FA681343FB607B681C4A93420BD07B6830
:10519000B3F1804F07D07B68194A934203D07B68F4
:1051A000184A934208D1FB6823F44073FB603B68C4
:1051B000DB68FA681343FB60FB6823F080023B68FE
:1051C0005B691343FB607B68FA681A603B689A6806
:1051D0007B68DA623B681A687B689A627B68074A78
:1051E000934203D13B681A697B681A637B6801228A
:1051F0005A6100BF1437BD4680BC7047002C014087
:10520000000400400008004080B487B000AF786020
:1052100039607B681B6A7B617B681B6A23F0010233
:105220007B681A627B685B683B617B689B69FB609B
:10523000FB6823F07003FB60FB6823F00303FB6053
:105240003B681B68FA681343FB607B6923F0020329
:105250007B613B689B687A6913437B617B681C4A6E
:1052600093420CD17B6923F008037B613B68DB68C8
:105270007A6913437B617B6923F004037B617B685C
:10528000134A934211D13B6923F480733B613B691C
:1052900023F400733B613B685B693A6913433B61EC
:1052A0003B689B693A6913433B617B683A695A6082
:1052B0007B68FA689A613B685A687B685A637B68C6
:1052C0007A691A6200BF1C37BD4680BC704700BFB8
:1052D000002C014080B487B000AF786039607B68F3
:1052E0001B6A7B617B681B6A23F010027B681A6271
:1052F0007B685B683B617B689B69FB60FB6823F4B0
:10530000E043FB60FB6823F44073FB603B681B6871
:105310001B02FA681343FB607B6923F020037B6167
:105320003B689B681B017A6913437B617B681D4A5C
:1053300093420DD17B6923F080037B613B68DB687E
:105340001B017A6913437B617B6923F040037B6116
:105350007B68144A934213D13B6923F480633B6119
:105360003B6923F400633B613B685B699B003A69DE
:1053700013433B613B689B699B003A6913433B6164
:105380007B683A695A607B68FA689A613B685A6838
:105390007B689A637B687A691A6200BF1C37BD46D6
:1053A00080BC7047002C014080B487B000AF7860AB
:1053B00039607B681B6A7B617B681B6A23F480729F
:1053C0007B681A627B685B683B617B68DB69FB60BA
:1053D000FB6823F07003FB60FB6823F00303FB60B2
:1053E0003B681B68FA681343FB607B6923F4007316
:1053F0007B613B689B681B027A6913437B617B6816
:105400001D4A93420DD17B6923F400637B613B68A5
:10541000DB681B027A6913437B617B6923F4806339
:105420007B617B68144A934213D13B6923F4805318
:105430003B613B6923F400533B613B685B691B01A3
:105440003A6913433B613B689B691B013A6913430B
:105450003B617B683A695A607B68FA68DA613B684D
:105460005A687B68DA637B687A691A6200BF1C3706
:10547000BD4680BC704700BF002C014080B487B09F
:1054800000AF786039607B681B6A3B617B681B6A90
:1054900023F480527B681A627B685B687B617B685F
:1054A000DB69FB60FB6823F4E043FB60FB6823F4EB
:1054B0004073FB603B681B681B02FA681343FB6088
:1054C0003B6923F400533B613B689B681B033A69CB
:1054D00013433B617B680F4A934209D17B6923F4F4
:1054E00080437B613B685B699B017A6913437B6105
:1054F0007B687A695A607B68FA68DA613B685A6847
:105500007B681A647B683A691A6200BF1C37BD4623
:1055100080BC7047002C014080B487B000AFF860B9
:10552000B9607A60FB681B6A7B61FB681B6A23F0C9
:105530000102FB681A62FB689B693B613B6923F0CF
:10554000F0033B617B681B013A6913433B617B6954
:1055500023F00A037B617A69BB6813437B61FB68B4
:105560003A699A61FB687A691A6200BF1C37BD46C6
:1055700080BC704780B487B000AFF860B9607A60D3
:10558000FB681B6A7B61FB681B6A23F01002FB68E7
:105590001A62FB689B693B613B6923F470433B6182
:1055A0007B681B033A6913433B617B6923F0A003CB
:1055B0007B61BB681B017A6913437B61FB683A69B5
:1055C0009A61FB687A691A6200BF1C37BD4680BCCD
:1055D000704780B485B000AF786039607B689B68A5
:1055E000FB60FB6823F07003FB603A68FB681343C1
:1055F00043F00703FB607B68FA689A6000BF1437CA
:10560000BD4680BC704780B487B000AFF860B96019
:105610007A603B60FB689B687B617B6923F47F4316
:105620007B613B681A027B681A43BB6813437A6943
:1056300013437B61FB687A699A6000BF1C37BD46E3
:1056400080BC704780B485B000AF786039607B68FB
:1056500093F83C30012B01D1022346E07B68012204
:1056600083F83C207B68022283F83D207B681B681E
:105670005B68FB607B681B689B68BB60FB6823F012
:105680007003FB603B681B68FA681343FB607B6830
:105690001B68FA685A607B681B68164A93420ED0F2
:1056A0007B681B68B3F1804F09D07B681B68124A86
:1056B000934204D07B681B68104A93420CD1BB68AC
:1056C00023F08003BB603B685B68BA681343BB6030
:1056D0007B681B68BA689A607B68012283F83D206A
:1056E0007B68002283F83C20002318461437BD460F
:1056F00080BC7047002C01400004004000080040BE
:1057000080B483B000AF786000BF0C37BD4680BC6A
:10571000704780B483B000AF786000BF0C37BD46DF
:1057200080BC704780B582B000AF78607B68002B8A
:1057300001D1012342E07B6893F84130DBB2002BBA
:1057400006D17B68002283F840207868FEF7E0FCF1
:105750007B68242283F841207B681B68DA687B68B9
:105760001B6822F40052DA60786800F065FE7B68FE
:105770001B681A697B681B6822F490421A617B6877
:105780001B685A697B681B6822F02A025A617B6891
:105790001B68DA687B681B6842F40052DA607B6839
:1057A00000225A647B68202283F841207B682022F3
:1057B00083F842207B6800225A630023184608378A
:1057C000BD4680BD80B485B000AFF860B9601346B7
:1057D000FB80FB6893F84130DBB2202B21D1BB6802
:1057E000002B02D0FB88002B01D101231AE0FB68BB
:1057F000BA681A62FB68FA889A84FB68FA88DA84C5
:10580000FB6800225A64FB68212283F84120FB6870
:105810001B68DA68FB681B6842F08002DA600023CC
:1058200000E0022318461437BD4680BC704780B59F
:1058300084B000AFF860B9601346FB80FB6893F852
:105840004230DBB2202B12D1BB68002B02D0FB8888
:10585000002B01D101230BE0FB6800221A63FB88B7
:105860001A46B968F86800F0E5FB034600E0022339
:1058700018461037BD4680BD80B58EB000AF786049
:105880007B681B680C333B623B6A53E8003FFB615B
:10589000FB6923F0C0037B637B681B680C337A6B66
:1058A000FA62BB62B96AFA6A41E800237B627B6AEA
:1058B000002BE5D17B681B685B6903F08003002B3C
:1058C0003CD07B681B681433FB60FB6853E8003FE7
:1058D000BB60BB6823F080033B637B681B681433A9
:1058E0003A6BBA617B617969BA6941E800233B612F
:1058F0003B69002BE5D17B689B6B002B13D07B6849
:105900009B6B164A5A637B689B6B1846FEF722FE18
:105910000346002B1CD07B689B6B5B6B7A68926B99
:105920001046984714E07B680022DA847B682022C6
:1059300083F84120786800F060FB09E07B68002272
:10594000DA847B68202283F84120786800F055FBD8
:10595000002318463837BD4680BD00BF936100085C
:1059600080B59AB000AF78607B681B680C33BB646D
:10597000BB6C53E8003F7B647B6C23F490737B66C5
:105980007B681B680C337A6E7A653B65396D7A6D7E
:1059900041E80023FB64FB6C002BE5D17B681B68AE
:1059A00014337B637B6B53E8003F3B633B6B23F01B
:1059B00001033B667B681B6814333A6E3A64FB63F1
:1059C000F96B3A6C41E80023BB63BB6B002BE5D15C
:1059D0007B681B6B012B19D17B681B680C333B6206
:1059E0003B6A53E8003FFB61FB6923F01003FB6552
:1059F0007B681B680C33FA6DFA62BB62B96AFA6A9B
:105A000041E800237B627B6A002BE5D17B681B6841
:105A10005B6903F04003002B3FD07B681B681433A5
:105A2000FB60FB6853E8003FBB60BB6823F04003AA
:105A3000BB657B681B681433BA6DBA617B61796999
:105A4000BA6941E800233B613B69002BE5D17B68E3
:105A5000DB6B002B13D07B68DB6B194A5A637B68C6
:105A6000DB6B1846FEF776FD0346002B22D07B68E1
:105A7000DB6B5B6B7A68D26B104698471AE07B68E9
:105A80000022DA857B68202283F842207B6800228E
:105A90001A63786800F0BAFA0CE07B680022DA85B5
:105AA0007B68202283F842207B6800221A63786892
:105AB00000F0ACFA002318466837BD4680BD00BF31
:105AC000BD61000880B5BAB000AF78607B681B6824
:105AD0001B68C7F8E4307B681B68DB68C7F8E030F8
